S01C00004D6563683435384F626A656374536F7274696E672E73726563AD
S113000071C0000081C000007FC000007DC00000FE
S11300107BC0000079C0000077C0000075C00000FC
S113002073C0000071C000006FC000006DC000000C
S11300306BC0000069C0000067C0000065C000001C
S113004063C0000061C000005FC000005DC000002C
S11300505BC0000059C0000057C0000055C000003C
S113006053C0000051C000004FC000004DC000004C
S11300704BC0000049C0000047C0000045C000005C
S11300808BC0000041C000003FC000003DC0000024
S11300903BC0000039C0000037C0000035C000007C
S11300A033C0000031C0000068C000002DC0000053
S11300B02BC0000029C0000027C0000025C000009C
S11300C023C0000021C000001FC000001DC00000AC
S11300D01BC0000019C0000017C0000015C00000BC
S11300E013C0000011241FBECFEFD1E2DEBFCDBF8D
S11300F000E00CBF22E0A0E0B2E001C01D92A230FB
S1130100B207E1F709D089C07BCFE1E6F0E080E8EF
S1130110808381E080830895F8DF4DD025D07894E2
S113012088EC90E052D090E023E030E041E0809110
S113013000028823E1F31092000291110AC0213CCD
S1130140310520F036952795942F0CC0220F331FCC
S113015009C02130310519F03695279503C090E088
S113016023E030E028B9E3CF8FEF80930A0190EFCA
S113017090930B0187B988B908951F920F920FB617
S11301800F9211248F9381E0809301028F910F903D
S11301900FBE0F901F9018951F920F920FB60F92DB
S11301A011248F9381E0809300028F910F900FBEF2
S11301B00F901F901895E1E8F0E0808182608083C1
S11301C01092A100109291000895811520E29207E7
S11301D010F08FEF9FE1009711F481E090E0880F19
S11301E0991F880F991F880F991F0197E1E9F0E083
S11301F0208128602083A1E7B0E02C9122602C9319
S1130200909399008093980082E088BB10929500A7
S1110210109294008DE080830895F894FFCF3F
S9030000FC
