:1000000071C0000081C000007FC000007DC0000002
:100010007BC0000079C0000077C0000075C0000000
:1000200073C0000071C000006FC000006DC0000010
:100030006BC0000069C0000067C0000065C0000020
:1000400063C0000061C000005FC000005DC0000030
:100050005BC0000059C0000057C0000055C0000040
:1000600053C0000051C000004FC000004DC0000050
:100070004BC0000049C0000047C0000045C0000060
:10008000C3C0000041C000003FC000003DC00000F0
:100090003BC0000039C0000037C0000035C0000080
:1000A00033C0000031C00000A0C000002DC000001F
:1000B0002BC0000029C0000027C0000025C00000A0
:1000C00023C0000021C000001FC000001DC00000B0
:1000D0001BC0000019C0000017C0000015C00000C0
:1000E00013C0000011241FBECFEFD1E2DEBFCDBF91
:1000F00000E00CBF22E0A0E0B2E001C01D92A230FF
:10010000B207E1F709D0B9C07BCFE1E6F0E080E8C3
:10011000808381E080830895F8DFE1E8F0E080816A
:10012000826080838FEF80930A0190EF90930B01A0
:1001300087B982E390E077D00F2EF0ECBF2EF02D40
:100140000F2EF0EEDF2EF02D0F2EF0EFEF2EF02D14
:100150000F2EF8E7FF2EF02D0CE31EE1DFE0C7E0E5
:100160000F2EF3E0CF2EF02DB8B882E390E05BD0F5
:10017000D8B882E390E057D0E8B882E390E053D05B
:10018000F8B882E390E04FD008B982E390E04BD01A
:1001900018B982E390E047D0D8B982E390E043D029
:1001A000C8B982E390E03FD0C8B882E390E03BD08A
:1001B000C8B982E390E037D0D8B982E390E033D079
:1001C00018B982E390E02FD008B982E390E02BD0F9
:1001D000F8B882E390E027D0E8B882E390E023D03B
:1001E000D8B882E390E01FD0BFCF1F920F920FB616
:1001F0000F9211248F9381E0809301028F910F90D1
:100200000FBE0F901F9018951F920F920FB60F926E
:1002100011248F9381E0809300028F910F900FBE85
:100220000F901F901895E1E8F0E02081286020836E
:100230002BEE33E0309389002093880010928500E4
:1002400010928400EFE6F0E020812260208322E01B
:1002500026BB20E030E042E009C0B19904C0281775
:100260003907D8F3089546BB2F5F3F4F8217930796
:0E02700019F0B19BF2CFF7CF0895F894FFCFAD
:00000001FF
